:020000040100F9
:10000000FD62938202400100FD12E39E02FE374131
:10001000000213010100B701000293810100B7053E
:1000200000019385C516370600011306C616B706EC
:1000300000029386060039A083A2050023A0560083
:1000400091059106E3EAC5FEB70500029385050018
:100050003706000213068600B706000293860600E4
:1000600039A083A2050023A0560091059106E3EA7A
:10007000C5FEB7050002938505003706000213068A
:10008000060021A023A005009105E3EDC5FEB70001
:100090000001E780C00AB7000001E780C00AB7008E
:1000A0000001E780201573005010F5BF828000002A
:1000B0000000000000000000000000000000000040
:1000C0006F004000197106C20AC40EC612C816CAD3
:1000D0001ACC1ECE22D026D22AD42ED632D836DA48
:1000E0003ADC3EDEC2C0C6C2CAC4CEC6D2C8D6CA78
:1000F000DACCDECEE2D0E6D2EAD4EED6F2D8F6DA28
:10010000FADCFEDE97000000938020068290924089
:100110002241B2414242D2426243F24302549254DB
:100120002255B2554256D2566257F2570648964863
:100130002649B649464AD64A664BF64B065C965C5B
:10014000265DB65D465ED65E665FF65F096173004A
:100150002030411106C602C4280097000001E78044
:0C01600060EA0100D5BF0100FDBF0000F7
:020000040200F8
:080000000C4185050CC1828052
:0400000501000000F6
:00000001FF
