:020000040100F9
:10000000FD62938202400100FD12E39E02FE374131
:10001000000213010100B701000293810100B7053E
:100020000001938545743706000113065674B70620
:1000300000029386060039A083A2050023A0560083
:1000400091059106E3EAC5FEB70500019385857425
:10005000370600011306E678B7060002938686008D
:1000600039A083A2050023A0560091059106E3EA7A
:10007000C5FEB7050002938545003706000213064A
:10008000560021A023A005009105E3EDC5FEB700B1
:100090000001E780C00AB7000001E780C00AB7008E
:1000A0000001E780C03073005010F5BF828000006F
:1000B0000000000000000000000000000000000040
:1000C0006F004000197106C20AC40EC612C816CAD3
:1000D0001ACC1ECE22D026D22AD42ED632D836DA48
:1000E0003ADC3EDEC2C0C6C2CAC4CEC6D2C8D6CA78
:1000F000DACCDECEE2D0E6D2EAD4EED6F2D8F6DA28
:10010000FADCFEDE9700000093806024829092402B
:100110002241B2414242D2426243F24302549254DB
:100120002255B2554256D2566257F2570648964863
:100130002649B649464AD64A664BF64B065C965C5B
:10014000265DB65D465ED65E665FF65F096173004A
:10015000203039712EC42AC6B28636C82AD62ED887
:10016000A30BC102370500011305454C2ADC13D54A
:1001700015003756555513065655718D898D3735EF
:1001800033331306353333F5C5008981F18D2E9550
:10019000935545002E95B7150F0F9385F5F06D8D8E
:1001A000B7050101938515103305B50261812ADE7B
:1001B00072558545631BB50009A03245A2452A86C4
:1001C00032C2FD156D8D1DCD91A0370500011305BF
:1001D000454C2ACA05452ACC370500018325C5535D
:1001E0001305C55348412ED22AD411452ACE0145C4
:1001F0002AD0B70500019385C55B48089700000029
:10020000E780401B4245058911E511A029A0124550
:1002100009ED11A019A8370500011305C54C930578
:10022000E00697000000E780C01F216182803971DD
:100230002EC22AC4B28636C62AD42ED6A309C1023B
:10024000370600011306464C32DA2ADC13D51500B6
:100250003756555513065655718D898D37353333BD
:100260001306353333F5C5008981F18D2E959355ED
:1002700045002E95B7150F0F9385F5F06D8DB705D9
:100280000101938515103305B50261812ADE72558F
:100290008545631BB50009A0224592452A8632C0D8
:1002A000FD156D8D1DCD91A0370500011305454C41
:1002B0002AC805452ACA370500018325C5531305F9
:1002C000C55348412ED02AD211452ACC01452ACE09
:1002D000B70500019385C55B080897000000E7801B
:1002E000600D3245058911E511A029A0024509EDEF
:1002F00011A019A8370500011305C55C9305F00688
:1003000097000000E780E01121618280011106CE94
:1003100001452AC668002AC83705000213054500B2
:100320002ACA37050002130505002ACC09A0680077
:1003300097000001E78080CD97000000E78040072C
:10034000FDB741112AC609A001A0411106C609A0A6
:1003500097000000E780C005E5BF411106C62AC02E
:100360002AC209A002459145014697000000E78096
:1003700080DE09A0024508412AC42245B24041015D
:100380008280011106CE2EC62AC82ACA2ECC09A008
:1003900042459145014697000000E78080E909A0A9
:1003A0003245C24588C1F2400561828001008280E9
:1003B000011106CE22CC00102326A4FE2328B4FE71
:1003C0000545231AA4FE1305C4FE97000000E7802C
:1003D00080F7797106D622D400185449184923248D
:1003E000D4FE2322E4FE544518455C4108412320F5
:1003F000D4FE232EE4FC232CF4FC232AA4FC1305B6
:1004000044FD2326A4FE2328C4FE230A04FEA30AD7
:10041000B4FE1305C4FE97000000E780C0F27971B6
:1004200006D622D400182328A4FE232AB4FE1305DE
:1004300004FF232CA4FC0545232EA4FC232404FE46
:1004400011452320A4FE232204FE370600011306D3
:10045000C669130584FD814597000000E780A0F779
:10046000011106CE22CC0010AA8537050001130524
:1004700045672320A4FE05452322A4FE232804FE6D
:1004800011452324A4FE232604FE130504FE970031
:080490000000E78020F20000EB
:1004980069735F616C69676E65645F746F3A206148
:1004A8006C69676E206973206E6F74206120706FAD
:1004B8007765722D6F662D74776F000098040001C0
:1004C8002A000000756E7361666520707265636F3F
:1004D8006E646974696F6E2873292076696F6C6120
:1004E8007465643A207074723A3A726561645F7632
:1004F8006F6C6174696C652072657175697265737A
:1005080020746861742074686520706F696E746502
:100518007220617267756D656E7420697320616CF5
:1005280069676E656420616E64206E6F6E2D6E75EE
:100538006C6C000000000000000000002F686F6D68
:10054800652F7275616C2F2E7275737475702F74A8
:100558006F6F6C636861696E732F6E696768746C1E
:10056800792D7838365F36342D756E6B6E6F776EF1
:100578002D6C696E75782D676E752F6C69622F7298
:100588007573746C69622F7372632F727573742F2D
:100598006C6962726172792F636F72652F7372630F
:1005A8002F7074722F636F6E73745F7074722E7213
:1005B800730000004405000175000000C805000034
:1005C8000D000000756E7361666520707265636F5B
:1005D8006E646974696F6E2873292076696F6C611F
:1005E8007465643A207074723A3A77726974655F18
:1005F800766F6C6174696C65207265717569726576
:100608007320746861742074686520706F696E74F3
:10061800657220617267756D656E742069732061FB
:100628006C69676E656420616E64206E6F6E2D6EF6
:10063800756C6C7372632F6D61696E2E7273000036
:100648003B0600010B0000000D0000002100000027
:10065800617474656D707420746F206164642077B0
:10066800697468206F766572666C6F77580600014A
:100678001C0000006C6962726172792F636F726589
:100688002F7372632F70616E69636B696E672E7268
:10069800730000007C0600011D000000DA00000065
:0406A8000500000049
:1006AC001000000000000000017A5200017C0101E2
:1006BC001B0C02001C00000018000000E8FCFFFFEF
:1006CC002200000000420E204481018802420C08E6
:1006DC00000000001C00000038000000EAFCFFFFD6
:1006EC004C00000000420E304481018802420C088C
:1006FC00000000001C0000005800000016FDFFFF69
:10070C004200000000420E304481018802420C0875
:10071C00000000001C0000007800000038FDFFFF06
:10072C003600000000420E204481018802420C0871
:08073C000000000000000000B5
:010744008133
:10074800011106CE2AC22AC62AC8970000FFE780F0
:100758008034AA85138515002AC4634EB50009A004
:10076800A24512452ACA2ECC970000FFE780203503
:10077800F240056182803705000113058564970002
:0607880000FFE780A04124
:0400000501000000F6
:00000001FF
